S00D000074657374342E7372656323
S11300000C943A000C945E010C9457000C94570025
S11300100C9457000C9457000C9457000C94570000
S11300200C9457000C9457000C9457000C945700F0
S11300300C9457000C9457000C9457000C945700E0
S11300400C9457000C9457000C9457000C945700D0
S11300500C9457007B019101A801BF01D601E9016D
S1130060000217022E0245025C0273028A02A102F8
S1130070B202C90211241FBECFE5D4E0DEBFCDBF5A
S113008010E0A0E6B0E0E2EBF7E002C005900D92CC
S1130090A639B107D9F720E0A6E9B0E001C01D9266
S11300A0AB3AB207E1F70E9471030C94D7030C94A6
S11300B000008295807F95B3986095BB95E89A95EA
S11300C0F1F7000095B39F7095BB95B3892B85BB61
S11300D085B3877F85BB85E88A95F1F7000008958D
S11300E0CF93C82F611104C085B38B7F85BB03C038
S11300F085B3846085BB8C2F82958F700E945900D4
S11301008C2F0E945900CF91089561E00E947000E5
S1130110089590E4699F800D112460E080680E9436
S1130120700008958FE295E70197F1F700C0000091
S113013083E00E9459008FE39FE10197F1F700C02B
S1130140000083E00E94590087EC90E00197F1F7EA
S113015000C0000083E00E9459008FEC97E00197F3
S1130160F1F700C0000082E00E9459008FEC97E094
S11301700197F1F700C0000060E088E20E9470007F
S11301808FEC97E00197F1F700C0000060E08CE08D
S11301900E9470008FEC97E00197F1F700C0000017
S11301A060E086E00E9470008FEC97E00197F1F721
S11301B000C00000089560E081E00E94700087EBB9
S11301C09BE00197F1F700C0000008950F931F937F
S11301D0CF93DF938C01C0E0D0E003C00E94850080
S11301E02196F801EC0FFD1F80818111F7CFDF917B
S11301F0CF911F910F91089517BA8FEF88BB84BBDD
S113020082E085BB8BB780648BBF83E085BF14BE5F
S113021080E48ABF789408958091A8009091A90001
S1130220049709F04AC060E670E08CE990E00E940F
S1130230CE03892B89F481E090E090939B00809316
S11302409A0090939700809396000E94DB0085E6C5
S113025090E00E94E60006C00E94DB0081E790E087
S11302600E94E6002FEF84E39CE021508040904000
S1130270E1F700C000000E94DB0080919A00909199
S11302809B00892B79F410929700109296000E949B
S1130290DB0061E070E080E00E94890088E790E084
S11302A00E94E6008AE0ECE9F0E0DF011D928A9505
S11302B0E9F71092A9001092A80008951F920F92D6
S11302C00FB60F9211242F933F934F935F936F9325
S11302D07F938F939F93AF93BF93EF93FF9386B3D3
S11302E0E82FEF70E093A6008E2F90E0FC01E65D0E
S11302F0FF4F0C94C8038091A8009091A900181690
S113030019060CF05CC10E94DB008AE0ECE9F0E025
S1130310DF011D928A95E9F71092A9001092A800B6
S11303204EC18091A8009091A900843091055CF49D
S1130330FC01E456FF4F29E3208301969093A90022
S11303408093A8003CC1FC01E456FF4F108237C1E2
S11303508091A8009091A900843091055CF4FC017F
S1130360E456FF4F28E3208301969093A9008093DD
S1130370A80025C1FC01E456FF4F108220C18091E2
S1130380A8009091A900843091055CF4FC01E45626
S1130390FF4F27E3208301969093A9008093A80040
S11303A00EC1FC01E456FF4F108209C18091A800E0
S11303B09091A900843091050CF001C1FC01E45630
S11303C0FF4F21E4208301969093A9008093A80015
S11303D0F6C08091A8009091A900843091055CF446
S11303E0FC01E456FF4F26E3208301969093A90075
S11303F08093A800E4C0FC01E456FF4F1082DFC0E4
S11304008091A8009091A900843091055CF4FC01CE
S1130410E456FF4F25E3208301969093A90080932F
S1130420A800CDC0FC01E456FF4F1082C8C08091E3
S1130430A8009091A900843091055CF4FC01E45675
S1130440FF4F24E3208301969093A9008093A80092
S1130450B6C0FC01E456FF4F1082B1C08091A800E1
S11304609091A900843091055CF4FC01E456FF4F9F
S113047022E4208301969093A9008093A8009FC052
S1130480FC01E456FF4F10829AC08091A80090911D
S1130490A900843091055CF4FC01E456FF4F23E38A
S11304A0208301969093A9008093A80088C0FC0142
S11304B0E456FF4F108283C08091A8009091A90058
S11304C0843091055CF4FC01E456FF4F22E3208361
S11304D001969093A9008093A80071C0FC01E45692
S11304E0FF4F10826CC08091A8009091A9008430C5
S11304F091055CF4FC01E456FF4F21E3208301964F
S11305009093A9008093A8005AC0FC01E456FF4FC1
S1130510108255C08091A8009091A9008430910563
S11305205CF4FC01E456FF4F23E42083019690938E
S1130530A9008093A80043C0FC01E456FF4F108239
S11305403EC08091A8009091A900843091052CF4BC
S113055010929B0010929A0032C0FC01E456FF4FA7
S113056010822DC08091A8009091A900843091053B
S11305705CF4FC01E456FF4F20E320830196909342
S1130580A9008093A8001BC0FC01E456FF4F108211
S113059016C08091A8009091A900843091055CF464
S11305A08BB38F7B8BBB85B38E7F85BB10929900F9
S11305B01092980004C0FC01E456FF4F108261E0E1
S11305C070E081E00E9489000E94DB0080919A0023
S11305D090919B00892B41F4109297001092960001
S11305E08CE990E00E94E60080919A0090919B0033
S11305F0892B79F4109297001092960061E070E0D4
S113060080E00E94890088E790E00E94E6000E9452
S11306100C0180919A0090919B00019751F481E024
S113062090E0909397008093960087E890E00E9472
S1130630E600FF91EF91BF91AF919F918F917F91D0
S11306406F915F914F913F912F910F900FBE0F903B
S11306501F9018958091960090919700892B41F4F2
S1130660B49906C081E090E090939900809398003B
S113067008958091960090919700892B81F4B59903
S113068006C081E090E09093990080939800B69919
S113069006C081E090E090939900809398000895BB
S11306A08091960090919700892B81F4B79906C0A8
S11306B081E090E09093990080939800999906C006
S11306C081E090E090939900809398000895809140
S11306D0980090919900019719F485B3816085BBC6
S11306E008950E94FC000E9492000E9482030E94CE
S11306F02A030E9450030E9439030E94C1030E94EE
S11307006703F5CF81B3816081BB81B3826081BB14
S11307108AB38D7F8ABB8BB382608BBB8AB38B7F9A
S11307208ABB8BB384608BBB80E48ABB1BBA0895FD
S11307308BB380648BBB089582B38D7F82BB82B3FD
S1130740826082BB1092AA0015C08091A700880F16
S11307508093A700C99B03C081608093A70082B3E4
S1130760816082BB82B38E7F82BB8091AA008F5F3F
S11307708093AA008091AA00883038F38091A70062
S113078008950E949C038F3F11F00E9498030895DE
S1130790EE0FFF1F0590F491E02D0994FB01DC019D
S11307A08D91019080190110D9F3990B0895F89453
S10507B0FFCF75
S11307B2313233340050617373776F7264204F4B5C
S11307C20057726F6E672100456E74657220706106
S11307D27373776F72640057656C636F6D6520483D
S10907E26F6D65210000AB
S9030000FC
